{
  "contractName": "Main",
  "abi": [
    {
      "inputs": [],
      "name": "getAdmin",
      "outputs": [
        {
          "internalType": "address",
          "name": "",
          "type": "address"
        }
      ],
      "stateMutability": "view",
      "type": "function",
      "constant": true
    },
    {
      "inputs": [
        {
          "internalType": "address",
          "name": "_target",
          "type": "address"
        }
      ],
      "name": "isAdmin",
      "outputs": [
        {
          "internalType": "bool",
          "name": "",
          "type": "bool"
        }
      ],
      "stateMutability": "view",
      "type": "function",
      "constant": true
    },
    {
      "inputs": [
        {
          "internalType": "string",
          "name": "",
          "type": "string"
        }
      ],
      "name": "multisigMap",
      "outputs": [
        {
          "internalType": "uint256",
          "name": "index",
          "type": "uint256"
        },
        {
          "internalType": "bool",
          "name": "exist",
          "type": "bool"
        }
      ],
      "stateMutability": "view",
      "type": "function",
      "constant": true
    },
    {
      "inputs": [
        {
          "internalType": "string",
          "name": "_pass",
          "type": "string"
        },
        {
          "internalType": "address[]",
          "name": "_owners",
          "type": "address[]"
        }
      ],
      "name": "addMultiSig",
      "outputs": [],
      "stateMutability": "nonpayable",
      "type": "function"
    },
    {
      "inputs": [
        {
          "internalType": "string",
          "name": "_pass",
          "type": "string"
        },
        {
          "internalType": "address payable",
          "name": "_to",
          "type": "address"
        },
        {
          "internalType": "uint256",
          "name": "_amount",
          "type": "uint256"
        }
      ],
      "name": "submitTransaction",
      "outputs": [],
      "stateMutability": "nonpayable",
      "type": "function"
    },
    {
      "inputs": [
        {
          "internalType": "string",
          "name": "_pass",
          "type": "string"
        },
        {
          "internalType": "uint256",
          "name": "_txId",
          "type": "uint256"
        }
      ],
      "name": "confirmTransaction",
      "outputs": [],
      "stateMutability": "nonpayable",
      "type": "function"
    },
    {
      "inputs": [
        {
          "internalType": "string",
          "name": "_pass",
          "type": "string"
        },
        {
          "internalType": "uint256",
          "name": "_txId",
          "type": "uint256"
        }
      ],
      "name": "revokeTransaction",
      "outputs": [],
      "stateMutability": "nonpayable",
      "type": "function"
    },
    {
      "inputs": [
        {
          "internalType": "string",
          "name": "_pass",
          "type": "string"
        },
        {
          "internalType": "uint256",
          "name": "_txId",
          "type": "uint256"
        }
      ],
      "name": "executeTransaction",
      "outputs": [],
      "stateMutability": "nonpayable",
      "type": "function"
    },
    {
      "inputs": [
        {
          "internalType": "string",
          "name": "_pass",
          "type": "string"
        }
      ],
      "name": "getOwners",
      "outputs": [
        {
          "internalType": "address[]",
          "name": "",
          "type": "address[]"
        }
      ],
      "stateMutability": "view",
      "type": "function",
      "constant": true
    },
    {
      "inputs": [
        {
          "internalType": "string",
          "name": "_pass",
          "type": "string"
        },
        {
          "internalType": "uint256",
          "name": "_txId",
          "type": "uint256"
        }
      ],
      "name": "getTransaction",
      "outputs": [
        {
          "internalType": "address",
          "name": "",
          "type": "address"
        },
        {
          "internalType": "address",
          "name": "",
          "type": "address"
        },
        {
          "internalType": "uint256",
          "name": "",
          "type": "uint256"
        },
        {
          "internalType": "uint256",
          "name": "",
          "type": "uint256"
        },
        {
          "internalType": "bool",
          "name": "",
          "type": "bool"
        }
      ],
      "stateMutability": "view",
      "type": "function",
      "constant": true
    },
    {
      "inputs": [
        {
          "internalType": "string",
          "name": "_pass",
          "type": "string"
        }
      ],
      "name": "getBalance",
      "outputs": [
        {
          "internalType": "uint256",
          "name": "",
          "type": "uint256"
        }
      ],
      "stateMutability": "view",
      "type": "function",
      "constant": true
    },
    {
      "inputs": [
        {
          "internalType": "string",
          "name": "_pass",
          "type": "string"
        }
      ],
      "name": "getAddress",
      "outputs": [
        {
          "internalType": "address",
          "name": "",
          "type": "address"
        }
      ],
      "stateMutability": "view",
      "type": "function",
      "constant": true
    },
    {
      "inputs": [
        {
          "internalType": "string",
          "name": "_pass",
          "type": "string"
        }
      ],
      "name": "chargeWallet",
      "outputs": [],
      "stateMutability": "payable",
      "type": "function",
      "payable": true
    }
  ],
  "bytecode": "0x6080604052603260015534801561001557600080fd5b50336000806101000a81548173ffffffffffffffffffffffffffffffffffffffff021916908373ffffffffffffffffffffffffffffffffffffffff160217905550613f30806100656000396000f3fe608060405260043610620000d45760003560e01c80636e9960c3116200008b578063bf08d7a11162000061578063bf08d7a114620002ec578063bf40fac1146200030c578063c9f453c21462000350578063dc87bf99146200037e57620000d4565b80636e9960c314620002605780637d6ca7451462000290578063976a511614620002be57620000d4565b806312b35c1c14620000d95780631fef97d4146200012157806324d7806c146200014f578063347b427a14620001935780633a51d24614620001d85780636057d21b146200021c575b600080fd5b348015620000e657600080fd5b50620001056004803603810190620000ff919062001408565b620003ac565b60405162000118959493929190620014e1565b60405180910390f35b3480156200012e57600080fd5b506200014d600480360381019062000147919062001408565b62000522565b005b3480156200015c57600080fd5b506200017b60048036038101906200017591906200156f565b62000670565b6040516200018a9190620015a1565b60405180910390f35b348015620001a057600080fd5b50620001bf6004803603810190620001b99190620015be565b620006c9565b604051620001cf9291906200160f565b60405180910390f35b348015620001e557600080fd5b50620002046004803603810190620001fe9190620015be565b62000710565b6040516200021391906200163c565b60405180910390f35b3480156200022957600080fd5b50620002486004803603810190620002429190620015be565b62000871565b60405162000257919062001727565b60405180910390f35b3480156200026d57600080fd5b5062000278620009ca565b6040516200028791906200174b565b60405180910390f35b3480156200029d57600080fd5b50620002bc6004803603810190620002b69190620017ad565b620009f3565b005b348015620002cb57600080fd5b50620002ea6004803603810190620002e4919062001903565b62000b44565b005b6200030a6004803603810190620003049190620015be565b62000da0565b005b3480156200031957600080fd5b50620003386004803603810190620003329190620015be565b62000eca565b6040516200034791906200174b565b60405180910390f35b3480156200035d57600080fd5b506200037c600480360381019062000376919062001408565b62000fad565b005b3480156200038b57600080fd5b50620003aa6004803603810190620003a4919062001408565b620010fb565b005b600080600080600086600281604051620003c7919062001a01565b908152602001604051809103902060010160009054906101000a900460ff1662000428576040517f08c379a00000000000000000000000000000000000000000000000000000000081526004016200041f9062001a7b565b60405180910390fd5b60036002896040516200043c919062001a01565b9081526020016040518091039020600001548154811062000462576200046162001a9d565b5b9060005260206000200160009054906101000a900473ffffffffffffffffffffffffffffffffffffffff1673ffffffffffffffffffffffffffffffffffffffff16637b4ba39188336040518363ffffffff1660e01b8152600401620004c992919062001acc565b60a060405180830381865afa158015620004e7573d6000803e3d6000fd5b505050506040513d601f19601f820116820180604052508101906200050d919062001b58565b95509550955095509550509295509295909350565b8160028160405162000535919062001a01565b908152602001604051809103902060010160009054906101000a900460ff1662000596576040517f08c379a00000000000000000000000000000000000000000000000000000000081526004016200058d9062001a7b565b60405180910390fd5b6003600284604051620005aa919062001a01565b90815260200160405180910390206000015481548110620005d057620005cf62001a9d565b5b9060005260206000200160009054906101000a900473ffffffffffffffffffffffffffffffffffffffff1673ffffffffffffffffffffffffffffffffffffffff1663765af1e483336040518363ffffffff1660e01b81526004016200063792919062001acc565b600060405180830381600087803b1580156200065257600080fd5b505af115801562000667573d6000803e3d6000fd5b50505050505050565b60008060009054906101000a900473ffffffffffffffffffffffffffffffffffffffff1673ffffffffffffffffffffffffffffffffffffffff168273ffffffffffffffffffffffffffffffffffffffff16149050919050565b6002818051602081018201805184825260208301602085012081835280955050505050506000915090508060000154908060010160009054906101000a900460ff16905082565b60008160028160405162000725919062001a01565b908152602001604051809103902060010160009054906101000a900460ff1662000786576040517f08c379a00000000000000000000000000000000000000000000000000000000081526004016200077d9062001a7b565b60405180910390fd5b60036002846040516200079a919062001a01565b90815260200160405180910390206000015481548110620007c057620007bf62001a9d565b5b9060005260206000200160009054906101000a900473ffffffffffffffffffffffffffffffffffffffff1673ffffffffffffffffffffffffffffffffffffffff1663f8b2cb4f336040518263ffffffff1660e01b81526004016200082591906200174b565b602060405180830381865afa15801562000843573d6000803e3d6000fd5b505050506040513d601f19601f8201168201806040525081019062000869919062001be0565b915050919050565b60608160028160405162000886919062001a01565b908152602001604051809103902060010160009054906101000a900460ff16620008e7576040517f08c379a0000000000000000000000000000000000000000000000000000000008152600401620008de9062001a7b565b60405180910390fd5b6003600284604051620008fb919062001a01565b9081526020016040518091039020600001548154811062000921576200092062001a9d565b5b9060005260206000200160009054906101000a900473ffffffffffffffffffffffffffffffffffffffff1673ffffffffffffffffffffffffffffffffffffffff1663a0e67e2b6040518163ffffffff1660e01b8152600401600060405180830381865afa15801562000997573d6000803e3d6000fd5b505050506040513d6000823e3d601f19601f82011682018060405250810190620009c2919062001cb9565b915050919050565b60008060009054906101000a900473ffffffffffffffffffffffffffffffffffffffff16905090565b8260028160405162000a06919062001a01565b908152602001604051809103902060010160009054906101000a900460ff1662000a67576040517f08c379a000000000000000000000000000000000000000000000000000000000815260040162000a5e9062001a7b565b60405180910390fd5b600360028560405162000a7b919062001a01565b9081526020016040518091039020600001548154811062000aa15762000aa062001a9d565b5b9060005260206000200160009054906101000a900473ffffffffffffffffffffffffffffffffffffffff1673ffffffffffffffffffffffffffffffffffffffff1663ca75cbfe8484336040518463ffffffff1660e01b815260040162000b0a9392919062001d1b565b600060405180830381600087803b15801562000b2557600080fd5b505af115801562000b3a573d6000803e3d6000fd5b5050505050505050565b60028260405162000b56919062001a01565b908152602001604051809103902060010160009054906101000a900460ff161562000bb8576040517f08c379a000000000000000000000000000000000000000000000000000000000815260040162000baf9062001da8565b60405180910390fd5b60008160008054906101000a900473ffffffffffffffffffffffffffffffffffffffff1660015460405162000bed9062001249565b62000bfb9392919062001e35565b604051809103906000f08015801562000c18573d6000803e3d6000fd5b5090508073ffffffffffffffffffffffffffffffffffffffff166375d98bcb6040518163ffffffff1660e01b8152600401602060405180830381865afa15801562000c67573d6000803e3d6000fd5b505050506040513d601f19601f8201168201806040525081019062000c8d919062001e79565b62000ccf576040517f08c379a000000000000000000000000000000000000000000000000000000000815260040162000cc69062001f21565b60405180910390fd5b60038054905060028460405162000ce7919062001a01565b908152602001604051809103902060000181905550600160028460405162000d10919062001a01565b908152602001604051809103902060010160006101000a81548160ff0219169083151502179055506003819080600181540180825580915050600190039060005260206000200160009091909190916101000a81548173ffffffffffffffffffffffffffffffffffffffff021916908373ffffffffffffffffffffffffffffffffffffffff160217905550505050565b8060028160405162000db3919062001a01565b908152602001604051809103902060010160009054906101000a900460ff1662000e14576040517f08c379a000000000000000000000000000000000000000000000000000000000815260040162000e0b9062001a7b565b60405180910390fd5b6000600360028460405162000e2a919062001a01565b9081526020016040518091039020600001548154811062000e505762000e4f62001a9d565b5b9060005260206000200160009054906101000a900473ffffffffffffffffffffffffffffffffffffffff1690508073ffffffffffffffffffffffffffffffffffffffff166108fc349081150290604051600060405180830381858888f1935050505015801562000ec4573d6000803e3d6000fd5b50505050565b60008160028160405162000edf919062001a01565b908152602001604051809103902060010160009054906101000a900460ff1662000f40576040517f08c379a000000000000000000000000000000000000000000000000000000000815260040162000f379062001a7b565b60405180910390fd5b600360028460405162000f54919062001a01565b9081526020016040518091039020600001548154811062000f7a5762000f7962001a9d565b5b9060005260206000200160009054906101000a900473ffffffffffffffffffffffffffffffffffffffff16915050919050565b8160028160405162000fc0919062001a01565b908152602001604051809103902060010160009054906101000a900460ff1662001021576040517f08c379a0000000000000000000000000000000000000000000000000000000008152600401620010189062001a7b565b60405180910390fd5b600360028460405162001035919062001a01565b908152602001604051809103902060000154815481106200105b576200105a62001a9d565b5b9060005260206000200160009054906101000a900473ffffffffffffffffffffffffffffffffffffffff1673ffffffffffffffffffffffffffffffffffffffff166360f247b583336040518363ffffffff1660e01b8152600401620010c292919062001acc565b600060405180830381600087803b158015620010dd57600080fd5b505af1158015620010f2573d6000803e3d6000fd5b50505050505050565b816002816040516200110e919062001a01565b908152602001604051809103902060010160009054906101000a900460ff166200116f576040517f08c379a0000000000000000000000000000000000000000000000000000000008152600401620011669062001a7b565b60405180910390fd5b600360028460405162001183919062001a01565b90815260200160405180910390206000015481548110620011a957620011a862001a9d565b5b9060005260206000200160009054906101000a900473ffffffffffffffffffffffffffffffffffffffff1673ffffffffffffffffffffffffffffffffffffffff166329ba878083336040518363ffffffff1660e01b81526004016200121092919062001acc565b600060405180830381600087803b1580156200122b57600080fd5b505af115801562001240573d6000803e3d6000fd5b50505050505050565b611fb78062001f4483390190565b6000604051905090565b600080fd5b600080fd5b600080fd5b600080fd5b6000601f19601f8301169050919050565b7f4e487b7100000000000000000000000000000000000000000000000000000000600052604160045260246000fd5b620012c08262001275565b810181811067ffffffffffffffff82111715620012e257620012e162001286565b5b80604052505050565b6000620012f762001257565b9050620013058282620012b5565b919050565b600067ffffffffffffffff82111562001328576200132762001286565b5b620013338262001275565b9050602081019050919050565b82818337600083830152505050565b60006200136662001360846200130a565b620012eb565b90508281526020810184848401111562001385576200138462001270565b5b6200139284828562001340565b509392505050565b600082601f830112620013b257620013b16200126b565b5b8135620013c48482602086016200134f565b91505092915050565b6000819050919050565b620013e281620013cd565b8114620013ee57600080fd5b50565b6000813590506200140281620013d7565b92915050565b6000806040838503121562001422576200142162001261565b5b600083013567ffffffffffffffff81111562001443576200144262001266565b5b62001451858286016200139a565b92505060206200146485828601620013f1565b9150509250929050565b600073ffffffffffffffffffffffffffffffffffffffff82169050919050565b60006200149b826200146e565b9050919050565b620014ad816200148e565b82525050565b620014be81620013cd565b82525050565b60008115159050919050565b620014db81620014c4565b82525050565b600060a082019050620014f86000830188620014a2565b620015076020830187620014a2565b620015166040830186620014b3565b620015256060830185620014b3565b620015346080830184620014d0565b9695505050505050565b62001549816200148e565b81146200155557600080fd5b50565b60008135905062001569816200153e565b92915050565b60006020828403121562001588576200158762001261565b5b6000620015988482850162001558565b91505092915050565b6000602082019050620015b86000830184620014d0565b92915050565b600060208284031215620015d757620015d662001261565b5b600082013567ffffffffffffffff811115620015f857620015f762001266565b5b62001606848285016200139a565b91505092915050565b6000604082019050620016266000830185620014b3565b620016356020830184620014d0565b9392505050565b6000602082019050620016536000830184620014b3565b92915050565b600081519050919050565b600082825260208201905092915050565b6000819050602082019050919050565b62001690816200148e565b82525050565b6000620016a4838362001685565b60208301905092915050565b6000602082019050919050565b6000620016ca8262001659565b620016d6818562001664565b9350620016e38362001675565b8060005b838110156200171a578151620016fe888262001696565b97506200170b83620016b0565b925050600181019050620016e7565b5085935050505092915050565b60006020820190508181036000830152620017438184620016bd565b905092915050565b6000602082019050620017626000830184620014a2565b92915050565b600062001775826200146e565b9050919050565b620017878162001768565b81146200179357600080fd5b50565b600081359050620017a7816200177c565b92915050565b600080600060608486031215620017c957620017c862001261565b5b600084013567ffffffffffffffff811115620017ea57620017e962001266565b5b620017f8868287016200139a565b93505060206200180b8682870162001796565b92505060406200181e86828701620013f1565b9150509250925092565b600067ffffffffffffffff82111562001846576200184562001286565b5b602082029050602081019050919050565b600080fd5b6000620018736200186d8462001828565b620012eb565b9050808382526020820190506020840283018581111562001899576200189862001857565b5b835b81811015620018c65780620018b1888262001558565b8452602084019350506020810190506200189b565b5050509392505050565b600082601f830112620018e857620018e76200126b565b5b8135620018fa8482602086016200185c565b91505092915050565b600080604083850312156200191d576200191c62001261565b5b600083013567ffffffffffffffff8111156200193e576200193d62001266565b5b6200194c858286016200139a565b925050602083013567ffffffffffffffff81111562001970576200196f62001266565b5b6200197e85828601620018d0565b9150509250929050565b600081519050919050565b600081905092915050565b60005b83811015620019be578082015181840152602081019050620019a1565b60008484015250505050565b6000620019d78262001988565b620019e3818562001993565b9350620019f58185602086016200199e565b80840191505092915050565b600062001a0f8284620019ca565b915081905092915050565b600082825260208201905092915050565b7f4d756c74695369672077616c6c657420646f6573206e6f742065786973740000600082015250565b600062001a63601e8362001a1a565b915062001a708262001a2b565b602082019050919050565b6000602082019050818103600083015262001a968162001a54565b9050919050565b7f4e487b7100000000000000000000000000000000000000000000000000000000600052603260045260246000fd5b600060408201905062001ae36000830185620014b3565b62001af26020830184620014a2565b9392505050565b60008151905062001b0a816200153e565b92915050565b60008151905062001b2181620013d7565b92915050565b62001b3281620014c4565b811462001b3e57600080fd5b50565b60008151905062001b528162001b27565b92915050565b600080600080600060a0868803121562001b775762001b7662001261565b5b600062001b878882890162001af9565b955050602062001b9a8882890162001af9565b945050604062001bad8882890162001b10565b935050606062001bc08882890162001b10565b925050608062001bd38882890162001b41565b9150509295509295909350565b60006020828403121562001bf95762001bf862001261565b5b600062001c098482850162001b10565b91505092915050565b600062001c2962001c238462001828565b620012eb565b9050808382526020820190506020840283018581111562001c4f5762001c4e62001857565b5b835b8181101562001c7c578062001c67888262001af9565b84526020840193505060208101905062001c51565b5050509392505050565b600082601f83011262001c9e5762001c9d6200126b565b5b815162001cb084826020860162001c12565b91505092915050565b60006020828403121562001cd25762001cd162001261565b5b600082015167ffffffffffffffff81111562001cf35762001cf262001266565b5b62001d018482850162001c86565b91505092915050565b62001d158162001768565b82525050565b600060608201905062001d32600083018662001d0a565b62001d416020830185620014b3565b62001d506040830184620014a2565b949350505050565b7f5468652070617373776f726420697320616c7265616479206578697374000000600082015250565b600062001d90601d8362001a1a565b915062001d9d8262001d58565b602082019050919050565b6000602082019050818103600083015262001dc38162001d81565b9050919050565b6000819050919050565b600062001df562001def62001de9846200146e565b62001dca565b6200146e565b9050919050565b600062001e098262001dd4565b9050919050565b600062001e1d8262001dfc565b9050919050565b62001e2f8162001e10565b82525050565b6000606082019050818103600083015262001e518186620016bd565b905062001e62602083018562001e24565b62001e716040830184620014b3565b949350505050565b60006020828403121562001e925762001e9162001261565b5b600062001ea28482850162001b41565b91505092915050565b7f546865204d756c74695369672057616c6c657420646f6e27742063726561746560008201527f20666f7220736f6d6520726561736f6e00000000000000000000000000000000602082015250565b600062001f0960308362001a1a565b915062001f168262001eab565b604082019050919050565b6000602082019050818103600083015262001f3c8162001efa565b905091905056fe60806040526000600660006101000a81548160ff0219169083151502179055503480156200002c57600080fd5b5060405162001fb738038062001fb7833981810160405281019062000052919062000531565b600183511162000099576040517f08c379a0000000000000000000000000000000000000000000000000000000008152600401620000909062000633565b60405180910390fd5b60005b83518110156200029c576000848281518110620000be57620000bd62000655565b5b60200260200101519050600073ffffffffffffffffffffffffffffffffffffffff168173ffffffffffffffffffffffffffffffffffffffff16036200013a576040517f08c379a00000000000000000000000000000000000000000000000000000000081526004016200013190620006d4565b60405180910390fd5b600460008273ffffffffffffffffffffffffffffffffffffffff1673ffffffffffffffffffffffffffffffffffffffff16815260200190815260200160002060009054906101000a900460ff1615620001ca576040517f08c379a0000000000000000000000000000000000000000000000000000000008152600401620001c19062000746565b60405180910390fd5b6001600460008373ffffffffffffffffffffffffffffffffffffffff1673ffffffffffffffffffffffffffffffffffffffff16815260200190815260200160002060006101000a81548160ff0219169083151502179055506002819080600181540180825580915050600190039060005260206000200160009091909190916101000a81548173ffffffffffffffffffffffffffffffffffffffff021916908373ffffffffffffffffffffffffffffffffffffffff160217905550508080620002939062000797565b9150506200009c565b50816000806101000a81548173ffffffffffffffffffffffffffffffffffffffff021916908373ffffffffffffffffffffffffffffffffffffffff160217905550806001819055506001600660006101000a81548160ff021916908315150217905550505050620007e4565b6000604051905090565b600080fd5b600080fd5b600080fd5b6000601f19601f8301169050919050565b7f4e487b7100000000000000000000000000000000000000000000000000000000600052604160045260246000fd5b6200036c8262000321565b810181811067ffffffffffffffff821117156200038e576200038d62000332565b5b80604052505050565b6000620003a362000308565b9050620003b1828262000361565b919050565b600067ffffffffffffffff821115620003d457620003d362000332565b5b602082029050602081019050919050565b600080fd5b600073ffffffffffffffffffffffffffffffffffffffff82169050919050565b60006200041782620003ea565b9050919050565b62000429816200040a565b81146200043557600080fd5b50565b60008151905062000449816200041e565b92915050565b6000620004666200046084620003b6565b62000397565b905080838252602082019050602084028301858111156200048c576200048b620003e5565b5b835b81811015620004b95780620004a4888262000438565b8452602084019350506020810190506200048e565b5050509392505050565b600082601f830112620004db57620004da6200031c565b5b8151620004ed8482602086016200044f565b91505092915050565b6000819050919050565b6200050b81620004f6565b81146200051757600080fd5b50565b6000815190506200052b8162000500565b92915050565b6000806000606084860312156200054d576200054c62000312565b5b600084015167ffffffffffffffff8111156200056e576200056d62000317565b5b6200057c86828701620004c3565b93505060206200058f8682870162000438565b9250506040620005a2868287016200051a565b9150509250925092565b600082825260208201905092915050565b7f546865204f776e657273206d7573742062652067726561746572207468616e2060008201527f6f6e650000000000000000000000000000000000000000000000000000000000602082015250565b60006200061b602383620005ac565b91506200062882620005bd565b604082019050919050565b600060208201905081810360008301526200064e816200060c565b9050919050565b7f4e487b7100000000000000000000000000000000000000000000000000000000600052603260045260246000fd5b7f546869732061646472657373206973206e6f742076616c696400000000000000600082015250565b6000620006bc601983620005ac565b9150620006c98262000684565b602082019050919050565b60006020820190508181036000830152620006ef81620006ad565b9050919050565b7f546869732061646472657373206973206e6f7420756e69717565000000000000600082015250565b60006200072e601a83620005ac565b91506200073b82620006f6565b602082019050919050565b6000602082019050818103600083015262000761816200071f565b9050919050565b7f4e487b7100000000000000000000000000000000000000000000000000000000600052601160045260246000fd5b6000620007a482620004f6565b91507fffffffffffffffffffffffffffffffffffffffffffffffffffffffffffffffff8203620007d957620007d862000768565b5b600182019050919050565b6117c380620007f46000396000f3fe60806040526004361061007f5760003560e01c80637b4ba3911161004e5780637b4ba39114610181578063a0e67e2b146101c2578063ca75cbfe146101ed578063f8b2cb4f14610216576100d6565b806329ba8780146100db57806360f247b51461010457806375d98bcb1461012d578063765af1e414610158576100d6565b366100d6573373ffffffffffffffffffffffffffffffffffffffff167f90890809c654f11d6e72a28fa60149770a0d11ec6c92319d6ceb2bb0a4ea1a1534476040516100cc929190610fa7565b60405180910390a2005b600080fd5b3480156100e757600080fd5b5061010260048036038101906100fd919061105f565b610253565b005b34801561011057600080fd5b5061012b6004803603810190610126919061105f565b610546565b005b34801561013957600080fd5b506101426107e4565b60405161014f91906110ba565b60405180910390f35b34801561016457600080fd5b5061017f600480360381019061017a919061105f565b6107fb565b005b34801561018d57600080fd5b506101a860048036038101906101a3919061105f565b610a5e565b6040516101b99594939291906110e4565b60405180910390f35b3480156101ce57600080fd5b506101d7610bde565b6040516101e491906111f5565b60405180910390f35b3480156101f957600080fd5b50610214600480360381019061020f9190611255565b610c6c565b005b34801561022257600080fd5b5061023d600480360381019061023891906112a8565b610ef6565b60405161024a91906112d5565b60405180910390f35b80600460008273ffffffffffffffffffffffffffffffffffffffff1673ffffffffffffffffffffffffffffffffffffffff16815260200190815260200160002060009054906101000a900460ff166102e0576040517f08c379a00000000000000000000000000000000000000000000000000000000081526004016102d79061134d565b60405180910390fd5b826003805490508110610328576040517f08c379a000000000000000000000000000000000000000000000000000000000815260040161031f906113b9565b60405180910390fd5b836003818154811061033d5761033c6113d9565b5b906000526020600020906005020160040160009054906101000a900460ff161561039c576040517f08c379a000000000000000000000000000000000000000000000000000000000815260040161039390611454565b60405180910390fd5b6000600386815481106103b2576103b16113d9565b5b9060005260206000209060050201905060028054905081600301541461040d576040517f08c379a0000000000000000000000000000000000000000000000000000000008152600401610404906114c0565b60405180910390fd5b476001548260020154610420919061153e565b826002015461042f919061156f565b111561043a57600080fd5b60008054906101000a900473ffffffffffffffffffffffffffffffffffffffff1673ffffffffffffffffffffffffffffffffffffffff166108fc6001548360020154610486919061153e565b9081150290604051600060405180830381858888f193505050501580156104b1573d6000803e3d6000fd5b508060010160009054906101000a900473ffffffffffffffffffffffffffffffffffffffff1673ffffffffffffffffffffffffffffffffffffffff166108fc82600201549081150290604051600060405180830381858888f19350505050158015610520573d6000803e3d6000fd5b5060018160040160006101000a81548160ff021916908315150217905550505050505050565b80600460008273ffffffffffffffffffffffffffffffffffffffff1673ffffffffffffffffffffffffffffffffffffffff16815260200190815260200160002060009054906101000a900460ff166105d3576040517f08c379a00000000000000000000000000000000000000000000000000000000081526004016105ca9061134d565b60405180910390fd5b82600380549050811061061b576040517f08c379a0000000000000000000000000000000000000000000000000000000008152600401610612906113b9565b60405180910390fd5b83600381815481106106305761062f6113d9565b5b906000526020600020906005020160040160009054906101000a900460ff161561068f576040517f08c379a000000000000000000000000000000000000000000000000000000000815260040161068690611454565b60405180910390fd5b84846005600083815260200190815260200160002060008273ffffffffffffffffffffffffffffffffffffffff1673ffffffffffffffffffffffffffffffffffffffff16815260200190815260200160002060009054906101000a900460ff161561072f576040517f08c379a000000000000000000000000000000000000000000000000000000000815260040161072690611615565b60405180910390fd5b600060038881548110610745576107446113d9565b5b90600052602060002090600502019050600181600301600082825461076a919061156f565b925050819055506001600560008a815260200190815260200160002060008973ffffffffffffffffffffffffffffffffffffffff1673ffffffffffffffffffffffffffffffffffffffff16815260200190815260200160002060006101000a81548160ff0219169083151502179055505050505050505050565b6000600660009054906101000a900460ff16905090565b80600460008273ffffffffffffffffffffffffffffffffffffffff1673ffffffffffffffffffffffffffffffffffffffff16815260200190815260200160002060009054906101000a900460ff16610888576040517f08c379a000000000000000000000000000000000000000000000000000000000815260040161087f9061134d565b60405180910390fd5b8260038054905081106108d0576040517f08c379a00000000000000000000000000000000000000000000000000000000081526004016108c7906113b9565b60405180910390fd5b83600381815481106108e5576108e46113d9565b5b906000526020600020906005020160040160009054906101000a900460ff1615610944576040517f08c379a000000000000000000000000000000000000000000000000000000000815260040161093b90611454565b60405180910390fd5b6005600086815260200190815260200160002060008573ffffffffffffffffffffffffffffffffffffffff1673ffffffffffffffffffffffffffffffffffffffff16815260200190815260200160002060009054906101000a900460ff166109ab57600080fd5b6000600386815481106109c1576109c06113d9565b5b9060005260206000209060050201905060018160030160008282546109e69190611635565b9250508190555060006005600088815260200190815260200160002060008773ffffffffffffffffffffffffffffffffffffffff1673ffffffffffffffffffffffffffffffffffffffff16815260200190815260200160002060006101000a81548160ff021916908315150217905550505050505050565b600080600080600085600460008273ffffffffffffffffffffffffffffffffffffffff1673ffffffffffffffffffffffffffffffffffffffff16815260200190815260200160002060009054906101000a900460ff16610af3576040517f08c379a0000000000000000000000000000000000000000000000000000000008152600401610aea9061134d565b60405180910390fd5b876003805490508110610b3b576040517f08c379a0000000000000000000000000000000000000000000000000000000008152600401610b32906113b9565b60405180910390fd5b600060038a81548110610b5157610b506113d9565b5b906000526020600020906005020190508060000160009054906101000a900473ffffffffffffffffffffffffffffffffffffffff168160010160009054906101000a900473ffffffffffffffffffffffffffffffffffffffff16826002015483600301548460040160009054906101000a900460ff16975097509750975097505050509295509295909350565b60606002805480602002602001604051908101604052809291908181526020018280548015610c6257602002820191906000526020600020905b8160009054906101000a900473ffffffffffffffffffffffffffffffffffffffff1673ffffffffffffffffffffffffffffffffffffffff1681526020019060010190808311610c18575b5050505050905090565b80600460008273ffffffffffffffffffffffffffffffffffffffff1673ffffffffffffffffffffffffffffffffffffffff16815260200190815260200160002060009054906101000a900460ff16610cf9576040517f08c379a0000000000000000000000000000000000000000000000000000000008152600401610cf09061134d565b60405180910390fd5b600073ffffffffffffffffffffffffffffffffffffffff168473ffffffffffffffffffffffffffffffffffffffff1603610d68576040517f08c379a0000000000000000000000000000000000000000000000000000000008152600401610d5f906116db565b60405180910390fd5b478310610daa576040517f08c379a0000000000000000000000000000000000000000000000000000000008152600401610da19061176d565b60405180910390fd5b60036040518060a001604052808473ffffffffffffffffffffffffffffffffffffffff1681526020018673ffffffffffffffffffffffffffffffffffffffff1681526020018581526020016000815260200160001515815250908060018154018082558091505060019003906000526020600020906005020160009091909190915060008201518160000160006101000a81548173ffffffffffffffffffffffffffffffffffffffff021916908373ffffffffffffffffffffffffffffffffffffffff16021790555060208201518160010160006101000a81548173ffffffffffffffffffffffffffffffffffffffff021916908373ffffffffffffffffffffffffffffffffffffffff160217905550604082015181600201556060820151816003015560808201518160040160006101000a81548160ff021916908315150217905550505050505050565b600081600460008273ffffffffffffffffffffffffffffffffffffffff1673ffffffffffffffffffffffffffffffffffffffff16815260200190815260200160002060009054906101000a900460ff16610f85576040517f08c379a0000000000000000000000000000000000000000000000000000000008152600401610f7c9061134d565b60405180910390fd5b47915050919050565b6000819050919050565b610fa181610f8e565b82525050565b6000604082019050610fbc6000830185610f98565b610fc96020830184610f98565b9392505050565b600080fd5b610fde81610f8e565b8114610fe957600080fd5b50565b600081359050610ffb81610fd5565b92915050565b600073ffffffffffffffffffffffffffffffffffffffff82169050919050565b600061102c82611001565b9050919050565b61103c81611021565b811461104757600080fd5b50565b60008135905061105981611033565b92915050565b6000806040838503121561107657611075610fd0565b5b600061108485828601610fec565b92505060206110958582860161104a565b9150509250929050565b60008115159050919050565b6110b48161109f565b82525050565b60006020820190506110cf60008301846110ab565b92915050565b6110de81611021565b82525050565b600060a0820190506110f960008301886110d5565b61110660208301876110d5565b6111136040830186610f98565b6111206060830185610f98565b61112d60808301846110ab565b9695505050505050565b600081519050919050565b600082825260208201905092915050565b6000819050602082019050919050565b61116c81611021565b82525050565b600061117e8383611163565b60208301905092915050565b6000602082019050919050565b60006111a282611137565b6111ac8185611142565b93506111b783611153565b8060005b838110156111e85781516111cf8882611172565b97506111da8361118a565b9250506001810190506111bb565b5085935050505092915050565b6000602082019050818103600083015261120f8184611197565b905092915050565b600061122282611001565b9050919050565b61123281611217565b811461123d57600080fd5b50565b60008135905061124f81611229565b92915050565b60008060006060848603121561126e5761126d610fd0565b5b600061127c86828701611240565b935050602061128d86828701610fec565b925050604061129e8682870161104a565b9150509250925092565b6000602082840312156112be576112bd610fd0565b5b60006112cc8482850161104a565b91505092915050565b60006020820190506112ea6000830184610f98565b92915050565b600082825260208201905092915050565b7f596f7520617265206e6f7420746865206f776e65720000000000000000000000600082015250565b60006113376015836112f0565b915061134282611301565b602082019050919050565b600060208201905081810360008301526113668161132a565b9050919050565b7f54686973207472616e73616374696f6e20646f6573206e6f7420657869737400600082015250565b60006113a3601f836112f0565b91506113ae8261136d565b602082019050919050565b600060208201905081810360008301526113d281611396565b9050919050565b7f4e487b7100000000000000000000000000000000000000000000000000000000600052603260045260246000fd5b7f5472616e73616374696f6e20616c726561647920686173206578656375746564600082015250565b600061143e6020836112f0565b915061144982611408565b602082019050919050565b6000602082019050818103600083015261146d81611431565b9050919050565b7f43616e206e6f7420657865637574650000000000000000000000000000000000600082015250565b60006114aa600f836112f0565b91506114b582611474565b602082019050919050565b600060208201905081810360008301526114d98161149d565b9050919050565b7f4e487b7100000000000000000000000000000000000000000000000000000000600052601260045260246000fd5b7f4e487b7100000000000000000000000000000000000000000000000000000000600052601160045260246000fd5b600061154982610f8e565b915061155483610f8e565b925082611564576115636114e0565b5b828204905092915050565b600061157a82610f8e565b915061158583610f8e565b925082820190508082111561159d5761159c61150f565b5b92915050565b7f5472616e73616374696f6e20616c726561647920636f6e6669726d656420627960008201527f20796f7500000000000000000000000000000000000000000000000000000000602082015250565b60006115ff6024836112f0565b915061160a826115a3565b604082019050919050565b6000602082019050818103600083015261162e816115f2565b9050919050565b600061164082610f8e565b915061164b83610f8e565b92508282039050818111156116635761166261150f565b5b92915050565b7f5468652044657374696e6174696f6e2061646472657373206973206e6f74207660008201527f616c696400000000000000000000000000000000000000000000000000000000602082015250565b60006116c56024836112f0565b91506116d082611669565b604082019050919050565b600060208201905081810360008301526116f4816116b8565b9050919050565b7f416d6f756e74206d7573742062652067726561746572207468616e20796f757260008201527f2077616c6c65742062616c616e63650000000000000000000000000000000000602082015250565b6000611757602f836112f0565b9150611762826116fb565b604082019050919050565b600060208201905081810360008301526117868161174a565b905091905056fea26469706673582212206c3ba009d868ca10bd370f2215cc27dc0a91197ce4e4b486e717297594851e9b64736f6c63430008110033a2646970667358221220bebbe7a1ee1d04669dbca756261013ac364405974aa8643da1a2c8772829901964736f6c63430008110033",
  "immutableReferences": {},
  "source": "//SPDX-License-Identifier: MIT\npragma solidity ^0.8.8;\n\nimport \"./contracts/MultiSig.sol\";\nimport \"./contracts/Admin.sol\";\n\ncontract Main is OnlyAdmin{\n\n    struct multisigIndex{\n        uint index;\n        bool exist;\n    }\n    mapping (string => multisigIndex) public multisigMap;\n    MultiSig[] multisigs;\n\n    modifier sigExist(string memory _pass) {\n        require(multisigMap[_pass].exist, \"MultiSig wallet does not exist\");\n        _;\n    }\n\n    function addMultiSig(string memory _pass, address[] memory _owners) public {\n        require(!multisigMap[_pass].exist, \"The password is already exist\");\n        MultiSig thisMulti = new MultiSig(_owners, adminAddr, comission);\n        require(thisMulti.getBuilt(), \"The MultiSig Wallet don't create for some reason\");\n        multisigMap[_pass].index = multisigs.length;\n        multisigMap[_pass].exist = true;\n        multisigs.push(thisMulti);\n    }\n\n    function submitTransaction(string memory _pass, address payable _to, uint _amount) public sigExist(_pass){\n        multisigs[multisigMap[_pass].index].submitTransaction(_to, _amount, msg.sender);\n    }\n\n    function confirmTransaction(string memory _pass, uint _txId) public sigExist(_pass){\n        multisigs[multisigMap[_pass].index].confirmTransaction(_txId, msg.sender);\n    }\n\n    function revokeTransaction(string memory _pass, uint _txId) public sigExist(_pass){\n        multisigs[multisigMap[_pass].index].revokeTransaction(_txId, msg.sender);\n    }\n\n    function executeTransaction(string memory _pass, uint _txId) public sigExist(_pass){\n        multisigs[multisigMap[_pass].index].executeTransaction(_txId, msg.sender);\n    }\n\n    function getOwners(string memory _pass) public view sigExist(_pass) returns(address[] memory){\n        return multisigs[multisigMap[_pass].index].getOwners();\n    }\n\n    function getTransaction(string memory _pass, uint _txId) public view sigExist(_pass) returns(address, address, uint, uint, bool){\n        return multisigs[multisigMap[_pass].index].getTransaction(_txId, msg.sender);\n    }\n\n    function getBalance(string memory _pass) public view sigExist(_pass) returns(uint){\n        return multisigs[multisigMap[_pass].index].getBalance(msg.sender);\n    }\n\n    function getAddress(string memory _pass) public view sigExist(_pass) returns(address){\n        return address(multisigs[multisigMap[_pass].index]);\n    }\n\n    function chargeWallet(string memory _pass) public payable sigExist(_pass) {\n        address payable target = payable(address(multisigs[multisigMap[_pass].index]));\n        target.transfer(msg.value);\n    }\n}",
  "sourcePath": "/media/qasem/8ffc6e89-0a0d-41be-be7b-75f0ccf23772/myProject/multisig-wallet/contracts/Main.sol",
  "compiler": {
    "name": "solc",
    "version": "0.8.17+commit.8df45f5f.Emscripten.clang"
  },
  "schemaVersion": "3.4.10",
  "updatedAt": "2022-11-02T13:26:53.453Z",
  "networkType": "ethereum",
  "devdoc": {
    "kind": "dev",
    "methods": {},
    "version": 1
  },
  "userdoc": {
    "kind": "user",
    "methods": {},
    "version": 1
  }
}