{
  "contractName": "MultiSig",
  "abi": [
    {
      "inputs": [
        {
          "internalType": "address[]",
          "name": "_owners",
          "type": "address[]"
        },
        {
          "internalType": "address",
          "name": "_adminAddr",
          "type": "address"
        },
        {
          "internalType": "uint256",
          "name": "_comission",
          "type": "uint256"
        }
      ],
      "stateMutability": "nonpayable",
      "type": "constructor"
    },
    {
      "anonymous": false,
      "inputs": [
        {
          "indexed": true,
          "internalType": "address",
          "name": "Sender",
          "type": "address"
        },
        {
          "indexed": false,
          "internalType": "uint256",
          "name": "Amount",
          "type": "uint256"
        },
        {
          "indexed": false,
          "internalType": "uint256",
          "name": "Balance",
          "type": "uint256"
        }
      ],
      "name": "Deposit",
      "type": "event"
    },
    {
      "stateMutability": "payable",
      "type": "receive"
    },
    {
      "inputs": [],
      "name": "getBuilt",
      "outputs": [
        {
          "internalType": "bool",
          "name": "",
          "type": "bool"
        }
      ],
      "stateMutability": "view",
      "type": "function"
    },
    {
      "inputs": [
        {
          "internalType": "address payable",
          "name": "_to",
          "type": "address"
        },
        {
          "internalType": "uint256",
          "name": "_amount",
          "type": "uint256"
        },
        {
          "internalType": "address",
          "name": "_from",
          "type": "address"
        }
      ],
      "name": "submitTransaction",
      "outputs": [],
      "stateMutability": "nonpayable",
      "type": "function"
    },
    {
      "inputs": [
        {
          "internalType": "uint256",
          "name": "_txId",
          "type": "uint256"
        },
        {
          "internalType": "address",
          "name": "_from",
          "type": "address"
        }
      ],
      "name": "confirmTransaction",
      "outputs": [],
      "stateMutability": "nonpayable",
      "type": "function"
    },
    {
      "inputs": [
        {
          "internalType": "uint256",
          "name": "_txId",
          "type": "uint256"
        },
        {
          "internalType": "address",
          "name": "_from",
          "type": "address"
        }
      ],
      "name": "revokeTransaction",
      "outputs": [],
      "stateMutability": "nonpayable",
      "type": "function"
    },
    {
      "inputs": [
        {
          "internalType": "uint256",
          "name": "_txId",
          "type": "uint256"
        },
        {
          "internalType": "address",
          "name": "_from",
          "type": "address"
        }
      ],
      "name": "executeTransaction",
      "outputs": [],
      "stateMutability": "nonpayable",
      "type": "function"
    },
    {
      "inputs": [],
      "name": "getOwners",
      "outputs": [
        {
          "internalType": "address[]",
          "name": "",
          "type": "address[]"
        }
      ],
      "stateMutability": "view",
      "type": "function"
    },
    {
      "inputs": [
        {
          "internalType": "uint256",
          "name": "_txId",
          "type": "uint256"
        },
        {
          "internalType": "address",
          "name": "_from",
          "type": "address"
        }
      ],
      "name": "getTransaction",
      "outputs": [
        {
          "internalType": "address",
          "name": "",
          "type": "address"
        },
        {
          "internalType": "address",
          "name": "",
          "type": "address"
        },
        {
          "internalType": "uint256",
          "name": "",
          "type": "uint256"
        },
        {
          "internalType": "uint256",
          "name": "",
          "type": "uint256"
        },
        {
          "internalType": "bool",
          "name": "",
          "type": "bool"
        }
      ],
      "stateMutability": "view",
      "type": "function"
    },
    {
      "inputs": [
        {
          "internalType": "address",
          "name": "_from",
          "type": "address"
        }
      ],
      "name": "getBalance",
      "outputs": [
        {
          "internalType": "uint256",
          "name": "",
          "type": "uint256"
        }
      ],
      "stateMutability": "view",
      "type": "function"
    }
  ],
  "bytecode": "0x60806040526000600660006101000a81548160ff0219169083151502179055503480156200002c57600080fd5b5060405162001fb738038062001fb7833981810160405281019062000052919062000531565b600183511162000099576040517f08c379a0000000000000000000000000000000000000000000000000000000008152600401620000909062000633565b60405180910390fd5b60005b83518110156200029c576000848281518110620000be57620000bd62000655565b5b60200260200101519050600073ffffffffffffffffffffffffffffffffffffffff168173ffffffffffffffffffffffffffffffffffffffff16036200013a576040517f08c379a00000000000000000000000000000000000000000000000000000000081526004016200013190620006d4565b60405180910390fd5b600460008273ffffffffffffffffffffffffffffffffffffffff1673ffffffffffffffffffffffffffffffffffffffff16815260200190815260200160002060009054906101000a900460ff1615620001ca576040517f08c379a0000000000000000000000000000000000000000000000000000000008152600401620001c19062000746565b60405180910390fd5b6001600460008373ffffffffffffffffffffffffffffffffffffffff1673ffffffffffffffffffffffffffffffffffffffff16815260200190815260200160002060006101000a81548160ff0219169083151502179055506002819080600181540180825580915050600190039060005260206000200160009091909190916101000a81548173ffffffffffffffffffffffffffffffffffffffff021916908373ffffffffffffffffffffffffffffffffffffffff160217905550508080620002939062000797565b9150506200009c565b50816000806101000a81548173ffffffffffffffffffffffffffffffffffffffff021916908373ffffffffffffffffffffffffffffffffffffffff160217905550806001819055506001600660006101000a81548160ff021916908315150217905550505050620007e4565b6000604051905090565b600080fd5b600080fd5b600080fd5b6000601f19601f8301169050919050565b7f4e487b7100000000000000000000000000000000000000000000000000000000600052604160045260246000fd5b6200036c8262000321565b810181811067ffffffffffffffff821117156200038e576200038d62000332565b5b80604052505050565b6000620003a362000308565b9050620003b1828262000361565b919050565b600067ffffffffffffffff821115620003d457620003d362000332565b5b602082029050602081019050919050565b600080fd5b600073ffffffffffffffffffffffffffffffffffffffff82169050919050565b60006200041782620003ea565b9050919050565b62000429816200040a565b81146200043557600080fd5b50565b60008151905062000449816200041e565b92915050565b6000620004666200046084620003b6565b62000397565b905080838252602082019050602084028301858111156200048c576200048b620003e5565b5b835b81811015620004b95780620004a4888262000438565b8452602084019350506020810190506200048e565b5050509392505050565b600082601f830112620004db57620004da6200031c565b5b8151620004ed8482602086016200044f565b91505092915050565b6000819050919050565b6200050b81620004f6565b81146200051757600080fd5b50565b6000815190506200052b8162000500565b92915050565b6000806000606084860312156200054d576200054c62000312565b5b600084015167ffffffffffffffff8111156200056e576200056d62000317565b5b6200057c86828701620004c3565b93505060206200058f8682870162000438565b9250506040620005a2868287016200051a565b9150509250925092565b600082825260208201905092915050565b7f546865204f776e657273206d7573742062652067726561746572207468616e2060008201527f6f6e650000000000000000000000000000000000000000000000000000000000602082015250565b60006200061b602383620005ac565b91506200062882620005bd565b604082019050919050565b600060208201905081810360008301526200064e816200060c565b9050919050565b7f4e487b7100000000000000000000000000000000000000000000000000000000600052603260045260246000fd5b7f546869732061646472657373206973206e6f742076616c696400000000000000600082015250565b6000620006bc601983620005ac565b9150620006c98262000684565b602082019050919050565b60006020820190508181036000830152620006ef81620006ad565b9050919050565b7f546869732061646472657373206973206e6f7420756e69717565000000000000600082015250565b60006200072e601a83620005ac565b91506200073b82620006f6565b602082019050919050565b6000602082019050818103600083015262000761816200071f565b9050919050565b7f4e487b7100000000000000000000000000000000000000000000000000000000600052601160045260246000fd5b6000620007a482620004f6565b91507fffffffffffffffffffffffffffffffffffffffffffffffffffffffffffffffff8203620007d957620007d862000768565b5b600182019050919050565b6117c380620007f46000396000f3fe60806040526004361061007f5760003560e01c80637b4ba3911161004e5780637b4ba39114610181578063a0e67e2b146101c2578063ca75cbfe146101ed578063f8b2cb4f14610216576100d6565b806329ba8780146100db57806360f247b51461010457806375d98bcb1461012d578063765af1e414610158576100d6565b366100d6573373ffffffffffffffffffffffffffffffffffffffff167f90890809c654f11d6e72a28fa60149770a0d11ec6c92319d6ceb2bb0a4ea1a1534476040516100cc929190610fa7565b60405180910390a2005b600080fd5b3480156100e757600080fd5b5061010260048036038101906100fd919061105f565b610253565b005b34801561011057600080fd5b5061012b6004803603810190610126919061105f565b610546565b005b34801561013957600080fd5b506101426107e4565b60405161014f91906110ba565b60405180910390f35b34801561016457600080fd5b5061017f600480360381019061017a919061105f565b6107fb565b005b34801561018d57600080fd5b506101a860048036038101906101a3919061105f565b610a5e565b6040516101b99594939291906110e4565b60405180910390f35b3480156101ce57600080fd5b506101d7610bde565b6040516101e491906111f5565b60405180910390f35b3480156101f957600080fd5b50610214600480360381019061020f9190611255565b610c6c565b005b34801561022257600080fd5b5061023d600480360381019061023891906112a8565b610ef6565b60405161024a91906112d5565b60405180910390f35b80600460008273ffffffffffffffffffffffffffffffffffffffff1673ffffffffffffffffffffffffffffffffffffffff16815260200190815260200160002060009054906101000a900460ff166102e0576040517f08c379a00000000000000000000000000000000000000000000000000000000081526004016102d79061134d565b60405180910390fd5b826003805490508110610328576040517f08c379a000000000000000000000000000000000000000000000000000000000815260040161031f906113b9565b60405180910390fd5b836003818154811061033d5761033c6113d9565b5b906000526020600020906005020160040160009054906101000a900460ff161561039c576040517f08c379a000000000000000000000000000000000000000000000000000000000815260040161039390611454565b60405180910390fd5b6000600386815481106103b2576103b16113d9565b5b9060005260206000209060050201905060028054905081600301541461040d576040517f08c379a0000000000000000000000000000000000000000000000000000000008152600401610404906114c0565b60405180910390fd5b476001548260020154610420919061153e565b826002015461042f919061156f565b111561043a57600080fd5b60008054906101000a900473ffffffffffffffffffffffffffffffffffffffff1673ffffffffffffffffffffffffffffffffffffffff166108fc6001548360020154610486919061153e565b9081150290604051600060405180830381858888f193505050501580156104b1573d6000803e3d6000fd5b508060010160009054906101000a900473ffffffffffffffffffffffffffffffffffffffff1673ffffffffffffffffffffffffffffffffffffffff166108fc82600201549081150290604051600060405180830381858888f19350505050158015610520573d6000803e3d6000fd5b5060018160040160006101000a81548160ff021916908315150217905550505050505050565b80600460008273ffffffffffffffffffffffffffffffffffffffff1673ffffffffffffffffffffffffffffffffffffffff16815260200190815260200160002060009054906101000a900460ff166105d3576040517f08c379a00000000000000000000000000000000000000000000000000000000081526004016105ca9061134d565b60405180910390fd5b82600380549050811061061b576040517f08c379a0000000000000000000000000000000000000000000000000000000008152600401610612906113b9565b60405180910390fd5b83600381815481106106305761062f6113d9565b5b906000526020600020906005020160040160009054906101000a900460ff161561068f576040517f08c379a000000000000000000000000000000000000000000000000000000000815260040161068690611454565b60405180910390fd5b84846005600083815260200190815260200160002060008273ffffffffffffffffffffffffffffffffffffffff1673ffffffffffffffffffffffffffffffffffffffff16815260200190815260200160002060009054906101000a900460ff161561072f576040517f08c379a000000000000000000000000000000000000000000000000000000000815260040161072690611615565b60405180910390fd5b600060038881548110610745576107446113d9565b5b90600052602060002090600502019050600181600301600082825461076a919061156f565b925050819055506001600560008a815260200190815260200160002060008973ffffffffffffffffffffffffffffffffffffffff1673ffffffffffffffffffffffffffffffffffffffff16815260200190815260200160002060006101000a81548160ff0219169083151502179055505050505050505050565b6000600660009054906101000a900460ff16905090565b80600460008273ffffffffffffffffffffffffffffffffffffffff1673ffffffffffffffffffffffffffffffffffffffff16815260200190815260200160002060009054906101000a900460ff16610888576040517f08c379a000000000000000000000000000000000000000000000000000000000815260040161087f9061134d565b60405180910390fd5b8260038054905081106108d0576040517f08c379a00000000000000000000000000000000000000000000000000000000081526004016108c7906113b9565b60405180910390fd5b83600381815481106108e5576108e46113d9565b5b906000526020600020906005020160040160009054906101000a900460ff1615610944576040517f08c379a000000000000000000000000000000000000000000000000000000000815260040161093b90611454565b60405180910390fd5b6005600086815260200190815260200160002060008573ffffffffffffffffffffffffffffffffffffffff1673ffffffffffffffffffffffffffffffffffffffff16815260200190815260200160002060009054906101000a900460ff166109ab57600080fd5b6000600386815481106109c1576109c06113d9565b5b9060005260206000209060050201905060018160030160008282546109e69190611635565b9250508190555060006005600088815260200190815260200160002060008773ffffffffffffffffffffffffffffffffffffffff1673ffffffffffffffffffffffffffffffffffffffff16815260200190815260200160002060006101000a81548160ff021916908315150217905550505050505050565b600080600080600085600460008273ffffffffffffffffffffffffffffffffffffffff1673ffffffffffffffffffffffffffffffffffffffff16815260200190815260200160002060009054906101000a900460ff16610af3576040517f08c379a0000000000000000000000000000000000000000000000000000000008152600401610aea9061134d565b60405180910390fd5b876003805490508110610b3b576040517f08c379a0000000000000000000000000000000000000000000000000000000008152600401610b32906113b9565b60405180910390fd5b600060038a81548110610b5157610b506113d9565b5b906000526020600020906005020190508060000160009054906101000a900473ffffffffffffffffffffffffffffffffffffffff168160010160009054906101000a900473ffffffffffffffffffffffffffffffffffffffff16826002015483600301548460040160009054906101000a900460ff16975097509750975097505050509295509295909350565b60606002805480602002602001604051908101604052809291908181526020018280548015610c6257602002820191906000526020600020905b8160009054906101000a900473ffffffffffffffffffffffffffffffffffffffff1673ffffffffffffffffffffffffffffffffffffffff1681526020019060010190808311610c18575b5050505050905090565b80600460008273ffffffffffffffffffffffffffffffffffffffff1673ffffffffffffffffffffffffffffffffffffffff16815260200190815260200160002060009054906101000a900460ff16610cf9576040517f08c379a0000000000000000000000000000000000000000000000000000000008152600401610cf09061134d565b60405180910390fd5b600073ffffffffffffffffffffffffffffffffffffffff168473ffffffffffffffffffffffffffffffffffffffff1603610d68576040517f08c379a0000000000000000000000000000000000000000000000000000000008152600401610d5f906116db565b60405180910390fd5b478310610daa576040517f08c379a0000000000000000000000000000000000000000000000000000000008152600401610da19061176d565b60405180910390fd5b60036040518060a001604052808473ffffffffffffffffffffffffffffffffffffffff1681526020018673ffffffffffffffffffffffffffffffffffffffff1681526020018581526020016000815260200160001515815250908060018154018082558091505060019003906000526020600020906005020160009091909190915060008201518160000160006101000a81548173ffffffffffffffffffffffffffffffffffffffff021916908373ffffffffffffffffffffffffffffffffffffffff16021790555060208201518160010160006101000a81548173ffffffffffffffffffffffffffffffffffffffff021916908373ffffffffffffffffffffffffffffffffffffffff160217905550604082015181600201556060820151816003015560808201518160040160006101000a81548160ff021916908315150217905550505050505050565b600081600460008273ffffffffffffffffffffffffffffffffffffffff1673ffffffffffffffffffffffffffffffffffffffff16815260200190815260200160002060009054906101000a900460ff16610f85576040517f08c379a0000000000000000000000000000000000000000000000000000000008152600401610f7c9061134d565b60405180910390fd5b47915050919050565b6000819050919050565b610fa181610f8e565b82525050565b6000604082019050610fbc6000830185610f98565b610fc96020830184610f98565b9392505050565b600080fd5b610fde81610f8e565b8114610fe957600080fd5b50565b600081359050610ffb81610fd5565b92915050565b600073ffffffffffffffffffffffffffffffffffffffff82169050919050565b600061102c82611001565b9050919050565b61103c81611021565b811461104757600080fd5b50565b60008135905061105981611033565b92915050565b6000806040838503121561107657611075610fd0565b5b600061108485828601610fec565b92505060206110958582860161104a565b9150509250929050565b60008115159050919050565b6110b48161109f565b82525050565b60006020820190506110cf60008301846110ab565b92915050565b6110de81611021565b82525050565b600060a0820190506110f960008301886110d5565b61110660208301876110d5565b6111136040830186610f98565b6111206060830185610f98565b61112d60808301846110ab565b9695505050505050565b600081519050919050565b600082825260208201905092915050565b6000819050602082019050919050565b61116c81611021565b82525050565b600061117e8383611163565b60208301905092915050565b6000602082019050919050565b60006111a282611137565b6111ac8185611142565b93506111b783611153565b8060005b838110156111e85781516111cf8882611172565b97506111da8361118a565b9250506001810190506111bb565b5085935050505092915050565b6000602082019050818103600083015261120f8184611197565b905092915050565b600061122282611001565b9050919050565b61123281611217565b811461123d57600080fd5b50565b60008135905061124f81611229565b92915050565b60008060006060848603121561126e5761126d610fd0565b5b600061127c86828701611240565b935050602061128d86828701610fec565b925050604061129e8682870161104a565b9150509250925092565b6000602082840312156112be576112bd610fd0565b5b60006112cc8482850161104a565b91505092915050565b60006020820190506112ea6000830184610f98565b92915050565b600082825260208201905092915050565b7f596f7520617265206e6f7420746865206f776e65720000000000000000000000600082015250565b60006113376015836112f0565b915061134282611301565b602082019050919050565b600060208201905081810360008301526113668161132a565b9050919050565b7f54686973207472616e73616374696f6e20646f6573206e6f7420657869737400600082015250565b60006113a3601f836112f0565b91506113ae8261136d565b602082019050919050565b600060208201905081810360008301526113d281611396565b9050919050565b7f4e487b7100000000000000000000000000000000000000000000000000000000600052603260045260246000fd5b7f5472616e73616374696f6e20616c726561647920686173206578656375746564600082015250565b600061143e6020836112f0565b915061144982611408565b602082019050919050565b6000602082019050818103600083015261146d81611431565b9050919050565b7f43616e206e6f7420657865637574650000000000000000000000000000000000600082015250565b60006114aa600f836112f0565b91506114b582611474565b602082019050919050565b600060208201905081810360008301526114d98161149d565b9050919050565b7f4e487b7100000000000000000000000000000000000000000000000000000000600052601260045260246000fd5b7f4e487b7100000000000000000000000000000000000000000000000000000000600052601160045260246000fd5b600061154982610f8e565b915061155483610f8e565b925082611564576115636114e0565b5b828204905092915050565b600061157a82610f8e565b915061158583610f8e565b925082820190508082111561159d5761159c61150f565b5b92915050565b7f5472616e73616374696f6e20616c726561647920636f6e6669726d656420627960008201527f20796f7500000000000000000000000000000000000000000000000000000000602082015250565b60006115ff6024836112f0565b915061160a826115a3565b604082019050919050565b6000602082019050818103600083015261162e816115f2565b9050919050565b600061164082610f8e565b915061164b83610f8e565b92508282039050818111156116635761166261150f565b5b92915050565b7f5468652044657374696e6174696f6e2061646472657373206973206e6f74207660008201527f616c696400000000000000000000000000000000000000000000000000000000602082015250565b60006116c56024836112f0565b91506116d082611669565b604082019050919050565b600060208201905081810360008301526116f4816116b8565b9050919050565b7f416d6f756e74206d7573742062652067726561746572207468616e20796f757260008201527f2077616c6c65742062616c616e63650000000000000000000000000000000000602082015250565b6000611757602f836112f0565b9150611762826116fb565b604082019050919050565b600060208201905081810360008301526117868161174a565b905091905056fea26469706673582212206c3ba009d868ca10bd370f2215cc27dc0a91197ce4e4b486e717297594851e9b64736f6c63430008110033",
  "immutableReferences": {},
  "source": "//SPDX-License-Identifier: MIT\npragma solidity ^0.8.8;\n\ncontract MultiSig{\n\n    event Deposit(address indexed Sender, uint Amount, uint Balance);\n\n    address payable adminAddr;\n    uint comission;\n    address[] owners;\n    struct Transaction {\n        address sender;\n        address payable destination;\n        uint amount;\n        uint confirmed;\n        bool executed;\n    }\n    Transaction[] transactions;\n    mapping (address  => bool) isOwner;\n    mapping (uint => mapping (address => bool)) isConfirmed;\n    bool built = false;\n\n    modifier onlyOwner(address _from){\n        require(isOwner[_from], \"You are not the owner\");\n        _;\n    }\n    modifier txExist(uint _txId){\n        require(_txId < transactions.length, \"This transaction does not exist\");\n        _;\n    }\n    modifier notExecuted(uint _txId){\n        require(!transactions[_txId].executed, \"Transaction already has executed\");\n        _;\n    }\n    modifier notConfirmed(uint _txId, address _from){\n        require(!isConfirmed[_txId][_from], \"Transaction already confirmed by you\");\n        _;\n    }\n\n    constructor (address[] memory _owners, address _adminAddr, uint _comission){\n        require(_owners.length > 1, \"The Owners must be greater than one\");\n        for(uint i = 0; i<_owners.length; i++){\n            address owner = _owners[i];\n            require(owner != address(0), \"This address is not valid\");\n            require(!isOwner[owner], \"This address is not unique\");\n            isOwner[owner] = true;\n            owners.push(owner);\n        }\n        adminAddr = payable(_adminAddr);\n        comission = _comission;\n        built = true;\n    }\n\n    receive() external payable{\n        emit Deposit(msg.sender, msg.value, address(this).balance);\n    }\n\n    function getBuilt() external view returns(bool){\n        return built;\n    }\n\n    function submitTransaction(address payable _to, uint _amount, address _from) external onlyOwner(_from){\n        require(_to != address(0), \"The Destination address is not valid\");\n        require(_amount < address(this).balance, \"Amount must be greater than your wallet balance\");\n        transactions.push(\n            Transaction({\n                sender: _from,\n                destination: _to,\n                amount: _amount,\n                confirmed: 0,\n                executed: false\n            })\n        );\n    }\n\n    function confirmTransaction(uint _txId, address _from) external onlyOwner(_from) txExist(_txId) notExecuted(_txId) notConfirmed(_txId, _from){\n        Transaction storage transaction = transactions[_txId];\n        transaction.confirmed += 1;\n        isConfirmed[_txId][_from] = true;\n    }\n    \n    function revokeTransaction(uint _txId, address _from) external onlyOwner(_from) txExist(_txId) notExecuted(_txId){\n        require(isConfirmed[_txId][_from]);\n        Transaction storage transaction = transactions[_txId];\n        transaction.confirmed -= 1;\n        isConfirmed[_txId][_from] = false;\n    }\n\n    function executeTransaction(uint _txId, address _from) external onlyOwner(_from) txExist(_txId) notExecuted(_txId){\n        Transaction storage transaction = transactions[_txId];\n        require(transaction.confirmed == owners.length, \"Can not execute\");\n        require(transaction.amount + transaction.amount/comission <= address(this).balance);\n        adminAddr.transfer(transaction.amount/comission);\n        transaction.destination.transfer(transaction.amount);\n        transaction.executed = true;\n    }\n\n    function getOwners() external view returns(address[] memory){\n        return owners;\n    }\n\n    function getTransaction(uint _txId, address _from) external view onlyOwner(_from) txExist(_txId) returns(address, address, uint, uint, bool){\n        Transaction storage transaction = transactions[_txId];\n        return (transaction.sender, transaction.destination, transaction.amount, transaction.confirmed, transaction.executed);\n    }\n\n    function getBalance(address _from) external view onlyOwner(_from) returns(uint){\n        return address(this).balance;\n    }\n}",
  "sourcePath": "/media/qasem/8ffc6e89-0a0d-41be-be7b-75f0ccf23772/myProject/multisig-wallet/contracts/contracts/MultiSig.sol",
  "compiler": {
    "name": "solc",
    "version": "0.8.17+commit.8df45f5f.Emscripten.clang"
  },
  "schemaVersion": "3.4.10",
  "updatedAt": "2022-11-02T13:24:03.482Z",
  "devdoc": {
    "kind": "dev",
    "methods": {},
    "version": 1
  },
  "userdoc": {
    "kind": "user",
    "methods": {},
    "version": 1
  }
}