{
  "contractName": "OnlyAdmin",
  "abi": [
    {
      "inputs": [],
      "stateMutability": "nonpayable",
      "type": "constructor"
    },
    {
      "inputs": [],
      "name": "getAdmin",
      "outputs": [
        {
          "internalType": "address",
          "name": "",
          "type": "address"
        }
      ],
      "stateMutability": "view",
      "type": "function"
    },
    {
      "inputs": [
        {
          "internalType": "address",
          "name": "_target",
          "type": "address"
        }
      ],
      "name": "isAdmin",
      "outputs": [
        {
          "internalType": "bool",
          "name": "",
          "type": "bool"
        }
      ],
      "stateMutability": "view",
      "type": "function"
    }
  ],
  "bytecode": "0x6080604052603260015534801561001557600080fd5b50336000806101000a81548173ffffffffffffffffffffffffffffffffffffffff021916908373ffffffffffffffffffffffffffffffffffffffff160217905550610231806100656000396000f3fe608060405234801561001057600080fd5b50600436106100365760003560e01c806324d7806c1461003b5780636e9960c31461006b575b600080fd5b6100556004803603810190610050919061016e565b610089565b60405161006291906101b6565b60405180910390f35b6100736100e2565b60405161008091906101e0565b60405180910390f35b60008060009054906101000a900473ffffffffffffffffffffffffffffffffffffffff1673ffffffffffffffffffffffffffffffffffffffff168273ffffffffffffffffffffffffffffffffffffffff16149050919050565b60008060009054906101000a900473ffffffffffffffffffffffffffffffffffffffff16905090565b600080fd5b600073ffffffffffffffffffffffffffffffffffffffff82169050919050565b600061013b82610110565b9050919050565b61014b81610130565b811461015657600080fd5b50565b60008135905061016881610142565b92915050565b6000602082840312156101845761018361010b565b5b600061019284828501610159565b91505092915050565b60008115159050919050565b6101b08161019b565b82525050565b60006020820190506101cb60008301846101a7565b92915050565b6101da81610130565b82525050565b60006020820190506101f560008301846101d1565b9291505056fea264697066735822122093a6101bfa6d6c158d3858e548fd20b1534e2053b8e2b7e518553ed3826625c464736f6c63430008110033",
  "immutableReferences": {},
  "source": "//SPDX-License-Identifier: MIT\npragma solidity ^0.8.8;\n\ncontract OnlyAdmin{\n\n    address payable adminAddr;\n    // 2 Percent For Comission\n    uint comission = 50;\n\n    constructor (){\n        adminAddr = payable(msg.sender);\n    }\n\n    function getAdmin() public view returns(address){\n        return adminAddr;\n    }\n\n    function isAdmin(address _target) public view returns(bool){\n        return _target == adminAddr;\n    }\n}",
  "sourcePath": "/media/qasem/8ffc6e89-0a0d-41be-be7b-75f0ccf23772/myProject/multisig-wallet/contracts/contracts/Admin.sol",
  "compiler": {
    "name": "solc",
    "version": "0.8.17+commit.8df45f5f.Emscripten.clang"
  },
  "schemaVersion": "3.4.10",
  "updatedAt": "2022-11-02T13:24:03.481Z",
  "devdoc": {
    "kind": "dev",
    "methods": {},
    "version": 1
  },
  "userdoc": {
    "kind": "user",
    "methods": {},
    "version": 1
  }
}